:020000040000FA
:100000000C9462000C948A000C948A000C948A0070
:100010000C948A000C948A000C948A000C948A0038
:100020000C948A000C948A000C948A000C948A0028
:100030000C948A000C948A000C948A000C948A0018
:100040000C94DC060C948A000C94AA060C9484068A
:100050000C948A000C948A000C948A000C948A00F8
:100060000C948A000C948A000000000024002700F1
:100070002A0000000000250028002B0000000000DE
:1000800023002600290004040404040404040202DA
:100090000202020203030303030301020408102007
:1000A0004080010204081020010204081020000012
:1000B0000008000201000003040700000000000027
:1000C0000000260711241FBECFEFD8E0DEBFCDBF52
:1000D00011E0A0E0B1E0ECEAF3E102C005900D927E
:1000E000AA3BB107D9F722E0AAEBB1E001C01D920B
:1000F000A73EB207E1F710E0C2E6D0E004C02197C6
:10010000FE010E94CE09C136D107C9F70E94E0075F
:100110000C94D4090C94000096E0899FD00111241E
:10012000A05ABD4F90967C936E935F9791E0919605
:100130009C939197E091CD02F091CE029091CC02E8
:10014000992339F0309751F0811108C080917C02D9
:100150000994309719F05C968C91FACF0895CF925C
:10016000DF92EF92FF920F931F9396E0899FF00129
:100170001124E05AFD4F11A2278D30A12130310505
:1001800051F178F02230310509F451C023303105A6
:1001900009F452C01F910F91FF90EF90DF90CF9024
:1001A00008956623B9F361E070E00E948C002FB7D8
:1001B000F8948091BF019091C001A091C101B091CC
:1001C000C2012FBF8093B8029093B902A093BA02E4
:1001D000B093BB02DFCF9FB7F894C090BF01D0901F
:1001E000C001E090C101F090C2019FBF0091B80230
:1001F0001091B9022091BA023091BB02C01AD10A03
:10020000E20AF30A0091CA021091CB0230E020E02A
:100210000C151D052E053F0550F462E070E01F919E
:100220000F91FF90EF90DF90CF900C948C006111B4
:10023000B1CF63E070E0F3CF70E060E0F0CFAF9259
:10024000BF92CF92DF92EF92FF920F931F93CF93C3
:10025000DF936C017B018B01040F151FEB015E0125
:10026000AE18BF08C017D10759F06991D601ED91BA
:10027000FC910190F081E02DC6010995892B79F759
:10028000C501DF91CF911F910F91FF90EF90DF900B
:10029000CF90BF90AF900895FC01538D448D252FD2
:1002A00030E0842F90E0821B930B541710F0CF9610
:1002B000089501970895FC01918D828D981761F042
:1002C000A28DAE0FBF2FB11D5D968C91928D9F5F59
:1002D0009F73928F90E008958FEF9FEF0895FC0138
:1002E000918D828D981731F0828DE80FF11D858DEB
:1002F00090E008958FEF9FEF0895FC01918D228D7E
:10030000892F90E0805C9F4F821B91098F73992702
:10031000089583EC91E00E947D0121E0892B09F48E
:1003200020E0822F089580E090E0892B29F00E9440
:10033000890181110C9400000895FC01A48DA80F7F
:10034000B92FB11DA35ABF4F2C91848D90E0019617
:100350008F739927848FA689B7892C93A089B18937
:100360008C91837080648C93938D848D981306C0D8
:100370000288F389E02D80818F7D80830895EF923C
:10038000FF920F931F93CF93DF93EC0181E0888F4F
:100390009B8D8C8D98131AC0E889F989808185FF1F
:1003A00015C09FB7F894EE89FF896083E889F989C1
:1003B00080818370806480839FBF81E090E0DF91C3
:1003C000CF911F910F91FF90EF900895F62E0B8D16
:1003D00010E00F5F1F4F0F731127E02E8C8D8E11D1
:1003E0000CC00FB607FCFACFE889F989808185FF38
:1003F000F5CFCE010E949D01F1CFEB8DEC0FFD2FCB
:10040000F11DE35AFF4FF0829FB7F8940B8FEA89F2
:10041000FB8980818062CFCFCF93DF93EC01888D01
:100420008823B9F0AA89BB89E889F9898C9185FD6F
:1004300003C0808186FD0DC00FB607FCF7CF8C91FD
:1004400085FFF2CF808185FFEDCFCE010E949D0117
:10045000E9CFDF91CF910895833081F028F4813086
:1004600099F08230A9F008958730A9F08830C9F05A
:100470008430B1F4809180008F7D03C08091800032
:100480008F7780938000089584B58F7784BD089519
:1004900084B58F7DFBCF8091B0008F778093B000C3
:1004A00008958091B0008F7DF9CFCF93DF93282FEF
:1004B00030E0F901E255FF4F8491F901E656FF4F14
:1004C000D491F901EA57FF4FC491CC23A1F08111D7
:1004D0000E942C02EC2FF0E0EE0FFF1FE458FF4FBC
:1004E000A591B491EC91ED2381E090E009F480E0D6
:1004F000DF91CF91089580E090E0FACF862F0C94A1
:1005000055021F93CF93DF93282F30E0F901E25576
:10051000FF4F8491F901E656FF4FD491F901EA5754
:10052000FF4FC491CC23A9F0162F81110E942C02F9
:10053000EC2FF0E0EE0FFF1FEE58FF4FA591B491A6
:100540008FB7F894EC91111108C0D095DE23DC939D
:100550008FBFDF91CF911F910895DE2BF8CF862FAB
:10056000642F0C948102CF93DF9390E0FC01E65658
:10057000FF4F24918A579F4FFC0184918823C9F033
:1005800090E0880F991FFC01E859FF4FA591B491A5
:10059000FC01EE58FF4FC591D49161110DC09FB77A
:1005A000F8948C91209582238C938881282328832A
:1005B0009FBFDF91CF910895623051F49FB7F894B7
:1005C0003C91822F809583238C93E8812E2BEFCF53
:1005D0008FB7F894EC912E2B2C938FBFEACF862FF8
:1005E000642F0C94B3026F927F928F929F92AF927E
:1005F000BF92CF92DF92EF92FF920F931F93CF9310
:10060000DF9381E08093CC028FB7F8944091BF01D3
:100610005091C0016091C1017091C2018FBF809162
:10062000BC029091BD02A091BE02B091BF02481BD6
:10063000590B6A0B7B0B8091C8029091C902B0E004
:10064000A0E084179507A607B70708F01DC1C0E012
:100650008091C602C81760F4E091C202F091C30213
:10066000EC0FF11D62E080810E94B302CF5FF0CFFA
:10067000712C812C912C540183948091C70278169F
:1006800008F05FC0072D10E0E091C402F091C502B0
:10069000E00FF11F61E080810E94B302E091C4028B
:1006A000F091C502E00FF11F60E080810E9481029D
:1006B000D501C401072C04C0880F991FAA1FBB1FB6
:1006C0000A94D2F76C017C01E094F094612C809143
:1006D000C6026816F8F4C62DD0E0E091C202F0918F
:1006E000C302EC0FFD1F80810E9455022496CC0F9F
:1006F000DD1FC05ADD4F892B41F4888199818C29F7
:100700009D29998388836394E2CF888199818E2182
:100710009F21F7CFE091C402F091C502E00FF11FD5
:1007200061E080810E9481028091C4029091C502A3
:10073000080F191F60E0F80180810E94B3027394D2
:100740009CCFC0E6D2E0FE018FEF9FEF278D30A156
:10075000232B21F4148E968F858F11A2369622E0DA
:10076000EC39F20799F7F12C96E0D92E8091C60268
:10077000F81608F050C0E12C0F2D10E0000F111FEB
:1007800008591D4F2091C702E21608F042C0F80137
:10079000608171810E2C02C0769567950A94E2F70C
:1007A000F29E900111242E0D311DE0E6F2E080E072
:1007B000458D568D2417350709F46AC08F5F36962C
:1007C0008A30B1F760FF23C0E0E6F2E090E080E01D
:1007D000448D411117C0E091C002F091C102E20FB7
:1007E000F31F4081D89EF001D99EF00D1124E05AEC
:1007F000FD4F448F368F258F10A2178E61E00E9427
:10080000AF0005C0019636968A30910509F7E3944A
:10081000B9CFF394ABCF80E099A19111892F26969F
:10082000F2E0CC39DF07C1F79FB7F8944091BF01E0
:100830005091C0016091C1017091C2019FBF40936E
:10084000BC025093BD026093BE027093BF02882326
:10085000D9F0809181028823B9F080917F02909134
:100860008002019789F480917C02DF91CF911F91E2
:100870000F91FF90EF90DF90CF90BF90AF909F903F
:100880008F907F906F9008951092CC0280E0EDCF12
:100890006170B5CF3FB7F8948091BB019091BC01D6
:1008A000A091BD01B091BE0126B5A89B05C02F3F08
:1008B00019F00196A11DB11D3FBFBA2FA92F982F86
:1008C0008827BC01CD01620F711D811D911D42E081
:1008D000660F771F881F991F4A95D1F708958F9249
:1008E0009F92AF92BF92CF92DF92EF92FF926B01F5
:1008F0007C010E944A044B015C01C114D104E10453
:10090000F104B9F00E944A04681979098A099B091F
:10091000683E73408105910580F321E0C21AD10839
:10092000E108F10888EE880E83E0981EA11CB11C36
:10093000E4CFFF90EF90DF90CF90BF90AF909F906B
:100940008F900895089590E080E008958F929F928F
:10095000AF92BF920F931F93CF93DF93CDB7DEB7C4
:10096000A1970FB6F894DEBF0FBECDBF19A24230DB
:1009700008F44AE08E010F5D1F4F842E912CB12C9C
:10098000A12CA50194010E94AC09E62FB901CA016E
:10099000EA3044F5E05DD801EE938D01232B242B42
:1009A000252B79F790E080E0109769F0FD01019028
:1009B0000020E9F73197AF014A1B5B0BBD018FECBB
:1009C00092E00E941F01A1960FB6F894DEBF0FBE01
:1009D000CDBFDF91CF911F910F91BF90AF909F90AE
:1009E0008F900895E95CD7CFFC0101900020E9F7D2
:1009F0003197AF01481B590BBC018FEC92E00C946E
:100A00001F01CF93DF93EC0160E08E810E94810291
:100A100061E08E810E94810260E08E810E948102ED
:100A20008BE891E00197F1F7DF91CF910895CF9294
:100A3000DF92EF92FF920F931F93CF93DF936C019E
:100A40007C0187E0E80EF11CD0E0C0E0062F10E04A
:100A5000B8010C2E02C0759567950A94E2F7617093
:100A6000F70181917F010E9481022196C430D10556
:100A700079F7C601DF91CF911F910F91FF90EF9011
:100A8000DF90CF900C940105CF92DF92EF92FF920E
:100A90000F931F93CF93DF93EC01F62E642F8C817D
:100AA0000E9481028D818F3F19F060E00E948102D7
:100AB0000F2D10E08F8584FF25C06E0187E0C80EE2
:100AC000D11CF12CE12CB8010E2C02C07595679554
:100AD0000A94E2F76170F60181916F010E94810230
:100AE000FFEFEF1AFF0A88E0E816F10461F7CE0184
:100AF000DF91CF911F910F91FF90EF90DF90CF90FA
:100B00000C940105B80184E0759567958A95E1F725
:100B1000CE010E9417056F2DCE01DF91CF911F915D
:100B20000F91FF90EF90DF90CF900C94170540E06D
:100B3000682F8FEC92E00C94440581E00E949705A9
:100B40008BE39FE10197F1F70895CF93DF93823014
:100B500029F49091DE0298609093DE028093E20285
:100B60001092E30280E48093E40280E18093E50246
:100B700080E58093E60261E08091D3020E94B30297
:100B80008091D4028F3F19F061E00E94B30261E0CE
:100B90008091D5020E94B302CFECD2E09E012F5C7F
:100BA00032408091DE0284FD0BC084E090E021960B
:100BB0002817390744F461E08E810E94B302EECF1A
:100BC00088E090E0F4CF8BE39DE00197F1F760E0DF
:100BD0008091D3020E94810260E08091D5020E9440
:100BE00081028091D4028F3F19F060E00E9481025F
:100BF0008091DE0284FD34C063E08FEC92E00E94BD
:100C00001705CBE4D6E4CE010197F1F763E08FEC52
:100C100092E00E9417052197F1F763E08FEC92E0D4
:100C20000E94170583E592E00197F1F762E08FECEF
:100C300092E00E9417058091DE0280620E94970573
:100C400084E08093DF028CE00E9497050E949D055E
:100C500082E08093E00286E0DF91CF910C949705CB
:100C600080620E9497058BE496E40197F1F78091EA
:100C7000DE0280620E94970583E592E00197F1F71A
:100C80008091DE0280620E949705D5CF9091E202AA
:100C9000891710F08FEF890FE82FF0E0E153FD4F37
:100CA000848980680C94970541E00E94440581E0A6
:100CB00090E00895CF92DF92EF92FF926C01092E9F
:100CC000000CEE08FF0897FF16C041E06DE28FECC4
:100CD00092E00E94440566277727CB016C197D09B5
:100CE0008E099F094AE00E94A6040196FF90EF90AA
:100CF000DF90CF9008954AE0C701B601FF90EF90D2
:100D0000DF90CF900C94A6041F920F920FB60F9213
:100D100011242F933F934F935F936F937F938F9300
:100D20009F93AF93BF93EF93FF9383EC91E00E9467
:100D30009D01FF91EF91BF91AF919F918F917F9115
:100D40006F915F914F913F912F910F900FBE0F9038
:100D50001F9018951F920F920FB60F9211242F9388
:100D60008F939F93EF93FF93E091D301F091D40180
:100D70008081E091D901F091DA0182FD1BC0908160
:100D80008091DC018F5F8F732091DD01821741F02C
:100D9000E091DC01F0E0ED53FE4F958F8093DC0194
:100DA000FF91EF919F918F912F910F900FBE0F9018
:100DB0001F9018958081F4CF1F920F920FB60F925B
:100DC00011242F933F938F939F93AF93BF93809161
:100DD000BF019091C001A091C101B091C2013091B9
:100DE000BA0123E0230F2D3758F50196A11DB11D3F
:100DF0002093BA018093BF019093C001A093C101D9
:100E0000B093C2018091BB019091BC01A091BD0142
:100E1000B091BE010196A11DB11D8093BB019093BD
:100E2000BC01A093BD01B093BE01BF91AF919F9152
:100E30008F913F912F910F900FBE0F901F9018959B
:100E400026E8230F0296A11DB11DD2CF1092C60134
:100E50001092C50188EE93E0A0E0B0E08093C70156
:100E60009093C801A093C901B093CA0187E191E0B2
:100E70009093C4018093C30185EC90E09093D001DE
:100E80008093CF0184EC90E09093D2018093D101C4
:100E900080EC90E09093D4018093D30181EC90E0BA
:100EA0009093D6018093D50182EC90E09093D80185
:100EB0008093D70186EC90E09093DA018093D9017A
:100EC0001092DC011092DD011092DE011092DF0120
:100ED0001092D2021092D10283E391E09093D0025B
:100EE0008093CF0283E18093D3028FEF8093D4026B
:100EF00082E18093D50281E18093D60280E18093E4
:100F0000D7028FE08093D8028EE08093D9021092AE
:100F1000DA021092DB021092DC021092DD021092D3
:100F2000DE0281E00E94A505109262021092660224
:100F3000109265021092670289E291E0909361023B
:100F400080936002ECE7F2E0108214821382158233
:100F5000369682E0E83BF807B9F783E091E090939A
:100F6000C3028093C20280E091E09093C502809317
:100F7000C40284E08093C60283E08093C70287E0C6
:100F800091E09093C1028093C0028AE090E0909338
:100F9000C9028093C80284EF91E09093CB028093C2
:100FA000CA021092CE021092CD021092BC02109290
:100FB000BD021092BE021092BF021092CC020895A0
:100FC000789484B5826084BD84B5816084BD85B524
:100FD000826085BD85B5816085BD80916E00816030
:100FE00080936E00109281008091810082608093D6
:100FF00081008091810081608093810080918000D8
:101000008160809380008091B10084608093B10002
:101010008091B00081608093B00080917A008460FC
:1010200080937A0080917A00826080937A00809128
:101030007A00816080937A0080917A008068809342
:101040007A001092C10061E08DE00E94B30261E07D
:101050008CE00E94B30261E08BE00E94B30261E089
:101060008AE00E94B30282E00E94A5058BE391E032
:101070000E94F40481E00E94460686E491E00E940A
:10108000F40480E00E944606E091D301F091D4017F
:1010900082E08083E091CF01F091D0011082E09155
:1010A000D101F091D2018FEC80831092DB01E091AD
:1010B000D701F091D80186E08083E091D501F091CD
:1010C000D601808180618083E091D501F091D601C5
:1010D000808188608083E091D501F091D601808184
:1010E00080688083E091D501F091D60180818F7D69
:1010F000808368EB7BE080E090E00E946F0405EA6B
:1011000013E080E0E82E80E0F82E0E949D050E940A
:10111000F3020E949D0581E591E00E94F40468EECF
:1011200073E080E090E00E946F040E949D0582E6DB
:1011300091E00E94F40481E00E94460684E791E079
:101140000E94F4040E94F302823309F058C00E9406
:101150009D0583E891E00E94F40468EE73E080E06E
:1011600090E00E946F040E949D058BE891E00E9430
:10117000F40481E00E9446068CE991E00E94F404A8
:101180000E94F302C82E880FDD08C114D104C1F3F8
:1011900080E3C81AD1080E949D05C6010E945A0624
:1011A0000E94F302C82F880FDD0B2097C9F3E09748
:1011B000CE010E945A062AE02C9DC0012D9D900D63
:1011C0001124C80FD91F61E08DE00E94810260E008
:1011D0008CE00E94810261E08BE00E94810260E06D
:1011E0008AE00E948102C09FB001C19F700DD09F14
:1011F000700D1124072E000C880B990B70C08833DA
:1012000009F04AC00E949D0586EA91E00E94F4041C
:1012100068EE73E080E090E00E946F040E949D05FC
:101220008BE891E00E94F40481E00E9446068CE97C
:1012300091E00E94F4040E94F302C82E880FDD089A
:10124000C114D104C1F380E3C81AD1080E949D05DE
:10125000C6010E945A060E94F302C82F880FDD0BB8
:101260002097C9F3E097CE010E945A062AE02C9DF0
:10127000C0012D9D900D1124C80FD91F60E08DE095
:101280000E94810261E08CE00E94810260E08BE0BC
:101290000E94810261E0A4CF863309F040C00E9421
:1012A0009D058FEA91E00E94F40468EE73E080E00F
:1012B00090E00E946F0461E08DE00E94810260E096
:1012C0008CE00E94810260E08BE00E94810261E07C
:1012D0008AE00E94810265EA73E080E090E00E946B
:1012E0006F0460E08DE00E94810260E08CE00E946B
:1012F000810260E08BE00E94810260E08AE00E944F
:1013000081020E949D05E114F10409F4FECE0E94C1
:101310008901882309F4F9CE0E940000F6CE8433B7
:1013200009F010CF0E949D0585EB91E00E94F40426
:1013300068EE73E080E090E00E946F0460E08DE072
:101340000E94810261E08CE00E94810261E08BE0FA
:101350000E94810260E0BCCFA1E21A2EAA1BBB1B37
:10136000FD010DC0AA1FBB1FEE1FFF1FA217B30771
:10137000E407F50720F0A21BB30BE40BF50B661F87
:10138000771F881F991F1A9469F76095709580954B
:1013900090959B01AC01BD01CF010895EE0FFF1F99
:1013A0000590F491E02D0994F894FFCF060504030D
:1013B0000207003132333435363738392A302300CA
:1013C000000000BF011F014C010C027D015B016F99
:1013D0000100000000EF02AF027E02000000005496
:1013E000061F01A304A20457656C636F6D6520544A
:1013F0006F00547572746C6520426F740043686F9F
:101400006F736520446972656374696F6E0046523C
:10141000573A32204241434B574152443A38200018
:101420004C4546543A342052494748543A360046CF
:101430004F525741524400456E746572207468657E
:10144000204E756D626572006F66204379636C652E
:1014500073004241434B574152440052494748545C
:06146000004C454654005B
:107E0000112484B714BE81FFF0D085E080938100F7
:107E100082E08093C00088E18093C10086E0809377
:107E2000C20080E18093C4008EE0C9D0259A86E02C
:107E300020E33CEF91E0309385002093840096BBD3
:107E4000B09BFECF1D9AA8958150A9F7CC24DD24C4
:107E500088248394B5E0AB2EA1E19A2EF3E0BF2EE7
:107E6000A2D0813461F49FD0082FAFD0023811F036
:107E7000013811F484E001C083E08DD089C08234E0
:107E800011F484E103C0853419F485E0A6D080C0E4
:107E9000853579F488D0E82EFF2485D0082F10E0AE
:107EA000102F00270E291F29000F111F8ED06801E7
:107EB0006FC0863521F484E090D080E0DECF843638
:107EC00009F040C070D06FD0082F6DD080E0C81688
:107ED00080E7D80618F4F601B7BEE895C0E0D1E017
:107EE00062D089930C17E1F7F0E0CF16F0E7DF06D8
:107EF00018F0F601B7BEE89568D007B600FCFDCFD4
:107F0000A601A0E0B1E02C9130E011968C91119780
:107F100090E0982F8827822B932B1296FA010C0160
:107F200087BEE89511244E5F5F4FF1E0A038BF0790
:107F300051F7F601A7BEE89507B600FCFDCF97BE46
:107F4000E89526C08437B1F42ED02DD0F82E2BD052
:107F50003CD0F601EF2C8F010F5F1F4F84911BD097
:107F6000EA94F801C1F70894C11CD11CFA94CF0C13
:107F7000D11C0EC0853739F428D08EE10CD085E9AC
:107F80000AD08FE07ACF813511F488E018D01DD067
:107F900080E101D065CF982F8091C00085FFFCCF94
:107FA0009093C60008958091C00087FFFCCF809118
:107FB000C00084FD01C0A8958091C6000895E0E648
:107FC000F0E098E1908380830895EDDF803219F02E
:107FD00088E0F5DFFFCF84E1DECF1F93182FE3DFCA
:107FE0001150E9F7F2DF1F91089580E0E8DFEE27F6
:047FF000FF270994CA
:027FFE00040479
:00000001FF
